{"abi":[{"type":"function","name":"createOrder","inputs":[{"name":"_seller","type":"address","internalType":"address"},{"name":"_token","type":"address","internalType":"address"},{"name":"_amount","type":"uint256","internalType":"uint256"},{"name":"_goodsHash","type":"bytes32","internalType":"bytes32"}],"outputs":[{"name":"","type":"uint256","internalType":"uint256"}],"stateMutability":"nonpayable"},{"type":"function","name":"nextOrderId","inputs":[],"outputs":[{"name":"","type":"uint256","internalType":"uint256"}],"stateMutability":"view"},{"type":"function","name":"orders","inputs":[{"name":"","type":"uint256","internalType":"uint256"}],"outputs":[{"name":"buyer","type":"address","internalType":"address"},{"name":"seller","type":"address","internalType":"address"},{"name":"token","type":"address","internalType":"address"},{"name":"amount","type":"uint256","internalType":"uint256"},{"name":"goodsHash","type":"bytes32","internalType":"bytes32"},{"name":"state","type":"uint8","internalType":"enum PaymentEscrow.OrderState"}],"stateMutability":"view"},{"type":"function","name":"refund","inputs":[{"name":"_orderId","type":"uint256","internalType":"uint256"}],"outputs":[],"stateMutability":"nonpayable"},{"type":"function","name":"releaseFunds","inputs":[{"name":"_orderId","type":"uint256","internalType":"uint256"}],"outputs":[],"stateMutability":"nonpayable"},{"type":"event","name":"FundsRefunded","inputs":[{"name":"orderId","type":"uint256","indexed":true,"internalType":"uint256"}],"anonymous":false},{"type":"event","name":"FundsReleased","inputs":[{"name":"orderId","type":"uint256","indexed":true,"internalType":"uint256"}],"anonymous":false},{"type":"event","name":"OrderCreated","inputs":[{"name":"orderId","type":"uint256","indexed":true,"internalType":"uint256"},{"name":"buyer","type":"address","indexed":true,"internalType":"address"},{"name":"seller","type":"address","indexed":true,"internalType":"address"},{"name":"amount","type":"uint256","indexed":false,"internalType":"uint256"}],"anonymous":false},{"type":"error","name":"SafeERC20FailedOperation","inputs":[{"name":"token","type":"address","internalType":"address"}]}],"bytecode":{"object":"0x6080604052348015600e575f5ffd5b50610f668061001c5f395ff3fe608060405234801561000f575f5ffd5b5060043610610055575f3560e01c806310fe5f8414610059578063278ecde1146100895780632a58b330146100a55780634d68282f146100c3578063a85c38ef146100df575b5f5ffd5b610073600480360381019061006e9190610ae4565b610114565b6040516100809190610b57565b60405180910390f35b6100a3600480360381019061009e9190610b70565b610425565b005b6100ad610612565b6040516100ba9190610b57565b60405180910390f35b6100dd60048036038101906100d89190610b70565b610617565b005b6100f960048036038101906100f49190610b70565b610804565b60405161010b96959493929190610c2c565b60405180910390f35b5f5f8311610157576040517f08c379a000000000000000000000000000000000000000000000000000000000815260040161014e90610ce5565b60405180910390fd5b5f73ffffffffffffffffffffffffffffffffffffffff168573ffffffffffffffffffffffffffffffffffffffff16036101c5576040517f08c379a00000000000000000000000000000000000000000000000000000000081526004016101bc90610d4d565b60405180910390fd5b5f5f5f8154809291906101d790610d98565b9190505590506040518060c001604052803373ffffffffffffffffffffffffffffffffffffffff1681526020018773ffffffffffffffffffffffffffffffffffffffff1681526020018673ffffffffffffffffffffffffffffffffffffffff1681526020018581526020018481526020016001600381111561025c5761025b610bb9565b5b81525060015f8381526020019081526020015f205f820151815f015f6101000a81548173ffffffffffffffffffffffffffffffffffffffff021916908373ffffffffffffffffffffffffffffffffffffffff1602179055506020820151816001015f6101000a81548173ffffffffffffffffffffffffffffffffffffffff021916908373ffffffffffffffffffffffffffffffffffffffff1602179055506040820151816002015f6101000a81548173ffffffffffffffffffffffffffffffffffffffff021916908373ffffffffffffffffffffffffffffffffffffffff160217905550606082015181600301556080820151816004015560a0820151816005015f6101000a81548160ff0219169083600381111561037e5761037d610bb9565b5b02179055509050506103b33330868873ffffffffffffffffffffffffffffffffffffffff166108a5909392919063ffffffff16565b8573ffffffffffffffffffffffffffffffffffffffff163373ffffffffffffffffffffffffffffffffffffffff16827ff9e17940e547201709f9aaacdec8ab3566601c60d8f5affb54f74b79b0b50b13876040516104119190610b57565b60405180910390a480915050949350505050565b5f60015f8381526020019081526020015f209050806001015f9054906101000a900473ffffffffffffffffffffffffffffffffffffffff1673ffffffffffffffffffffffffffffffffffffffff163373ffffffffffffffffffffffffffffffffffffffff16146104ca576040517f08c379a00000000000000000000000000000000000000000000000000000000081526004016104c190610e29565b60405180910390fd5b600160038111156104de576104dd610bb9565b5b816005015f9054906101000a900460ff16600381111561050157610500610bb9565b5b14610541576040517f08c379a000000000000000000000000000000000000000000000000000000000815260040161053890610e91565b60405180910390fd5b6003816005015f6101000a81548160ff0219169083600381111561056857610567610bb9565b5b02179055506105e1815f015f9054906101000a900473ffffffffffffffffffffffffffffffffffffffff168260030154836002015f9054906101000a900473ffffffffffffffffffffffffffffffffffffffff1673ffffffffffffffffffffffffffffffffffffffff166108fa9092919063ffffffff16565b817fca4bd5135a11e3fc146ac22d75f0d2eae9b6c61b6fa3eb6724a456b311ad72d360405160405180910390a25050565b5f5481565b5f60015f8381526020019081526020015f209050805f015f9054906101000a900473ffffffffffffffffffffffffffffffffffffffff1673ffffffffffffffffffffffffffffffffffffffff163373ffffffffffffffffffffffffffffffffffffffff16146106bb576040517f08c379a00000000000000000000000000000000000000000000000000000000081526004016106b290610ef9565b60405180910390fd5b600160038111156106cf576106ce610bb9565b5b816005015f9054906101000a900460ff1660038111156106f2576106f1610bb9565b5b14610732576040517f08c379a000000000000000000000000000000000000000000000000000000000815260040161072990610e91565b60405180910390fd5b6002816005015f6101000a81548160ff0219169083600381111561075957610758610bb9565b5b02179055506107d3816001015f9054906101000a900473ffffffffffffffffffffffffffffffffffffffff168260030154836002015f9054906101000a900473ffffffffffffffffffffffffffffffffffffffff1673ffffffffffffffffffffffffffffffffffffffff166108fa9092919063ffffffff16565b817f952b264c8e0a06cddb4bbaa6d6af1d565145329fd95bbe72cb2b53942b2dc96660405160405180910390a25050565b6001602052805f5260405f205f91509050805f015f9054906101000a900473ffffffffffffffffffffffffffffffffffffffff1690806001015f9054906101000a900473ffffffffffffffffffffffffffffffffffffffff1690806002015f9054906101000a900473ffffffffffffffffffffffffffffffffffffffff1690806003015490806004015490806005015f9054906101000a900460ff16905086565b6108b384848484600161094d565b6108f457836040517f5274afe70000000000000000000000000000000000000000000000000000000081526004016108eb9190610f17565b60405180910390fd5b50505050565b61090783838360016109be565b61094857826040517f5274afe700000000000000000000000000000000000000000000000000000000815260040161093f9190610f17565b60405180910390fd5b505050565b5f5f6323b872dd60e01b9050604051815f525f1960601c87166004525f1960601c86166024528460445260205f60645f5f8c5af1925060015f511483166109ab57838315161561099f573d5f823e3d81fd5b5f883b113d1516831692505b806040525f606052505095945050505050565b5f5f63a9059cbb60e01b9050604051815f525f1960601c86166004528460245260205f60445f5f8b5af1925060015f51148316610a12578383151615610a06573d5f823e3d81fd5b5f873b113d1516831692505b806040525050949350505050565b5f5ffd5b5f73ffffffffffffffffffffffffffffffffffffffff82169050919050565b5f610a4d82610a24565b9050919050565b610a5d81610a43565b8114610a67575f5ffd5b50565b5f81359050610a7881610a54565b92915050565b5f819050919050565b610a9081610a7e565b8114610a9a575f5ffd5b50565b5f81359050610aab81610a87565b92915050565b5f819050919050565b610ac381610ab1565b8114610acd575f5ffd5b50565b5f81359050610ade81610aba565b92915050565b5f5f5f5f60808587031215610afc57610afb610a20565b5b5f610b0987828801610a6a565b9450506020610b1a87828801610a6a565b9350506040610b2b87828801610a9d565b9250506060610b3c87828801610ad0565b91505092959194509250565b610b5181610a7e565b82525050565b5f602082019050610b6a5f830184610b48565b92915050565b5f60208284031215610b8557610b84610a20565b5b5f610b9284828501610a9d565b91505092915050565b610ba481610a43565b82525050565b610bb381610ab1565b82525050565b7f4e487b71000000000000000000000000000000000000000000000000000000005f52602160045260245ffd5b60048110610bf757610bf6610bb9565b5b50565b5f819050610c0782610be6565b919050565b5f610c1682610bfa565b9050919050565b610c2681610c0c565b82525050565b5f60c082019050610c3f5f830189610b9b565b610c4c6020830188610b9b565b610c596040830187610b9b565b610c666060830186610b48565b610c736080830185610baa565b610c8060a0830184610c1d565b979650505050505050565b5f82825260208201905092915050565b7f416d6f756e74206d757374206265203e203000000000000000000000000000005f82015250565b5f610ccf601283610c8b565b9150610cda82610c9b565b602082019050919050565b5f6020820190508181035f830152610cfc81610cc3565b9050919050565b7f496e76616c69642073656c6c65720000000000000000000000000000000000005f82015250565b5f610d37600e83610c8b565b9150610d4282610d03565b602082019050919050565b5f6020820190508181035f830152610d6481610d2b565b9050919050565b7f4e487b71000000000000000000000000000000000000000000000000000000005f52601160045260245ffd5b5f610da282610a7e565b91507fffffffffffffffffffffffffffffffffffffffffffffffffffffffffffffffff8203610dd457610dd3610d6b565b5b600182019050919050565b7f4f6e6c792073656c6c65722063616e20726566756e64000000000000000000005f82015250565b5f610e13601683610c8b565b9150610e1e82610ddf565b602082019050919050565b5f6020820190508181035f830152610e4081610e07565b9050919050565b7f496e76616c6964207374617465000000000000000000000000000000000000005f82015250565b5f610e7b600d83610c8b565b9150610e8682610e47565b602082019050919050565b5f6020820190508181035f830152610ea881610e6f565b9050919050565b7f4f6e6c792062757965722063616e2072656c65617365000000000000000000005f82015250565b5f610ee3601683610c8b565b9150610eee82610eaf565b602082019050919050565b5f6020820190508181035f830152610f1081610ed7565b9050919050565b5f602082019050610f2a5f830184610b9b565b9291505056fea2646970667358221220c5745f287f1738805e81b4ad126ab7abb374fdfaa6083a9d3706e2c251fe314564736f6c63430008210033","linkReferences":{}},"methodIdentifiers":{"createOrder(address,address,uint256,bytes32)":"10fe5f84","nextOrderId()":"2a58b330","orders(uint256)":"a85c38ef","refund(uint256)":"278ecde1","releaseFunds(uint256)":"4d68282f"},"id":6}